{
  "_format": "hh3-artifact-1",
  "contractName": "TicketCredential",
  "sourceName": "contracts/TicketCredential.sol",
  "abi": [
    {
      "inputs": [
        {
          "internalType": "address",
          "name": "eventRegistryAddress",
          "type": "address"
        },
        {
          "internalType": "address",
          "name": "credentialRegistryAddress",
          "type": "address"
        }
      ],
      "stateMutability": "nonpayable",
      "type": "constructor"
    },
    {
      "anonymous": false,
      "inputs": [
        {
          "indexed": true,
          "internalType": "uint256",
          "name": "ticketId",
          "type": "uint256"
        },
        {
          "indexed": true,
          "internalType": "uint256",
          "name": "eventId",
          "type": "uint256"
        },
        {
          "indexed": true,
          "internalType": "address",
          "name": "holder",
          "type": "address"
        },
        {
          "indexed": false,
          "internalType": "bytes32",
          "name": "credentialHash",
          "type": "bytes32"
        }
      ],
      "name": "TicketIssued",
      "type": "event"
    },
    {
      "anonymous": false,
      "inputs": [
        {
          "indexed": true,
          "internalType": "uint256",
          "name": "ticketId",
          "type": "uint256"
        },
        {
          "indexed": false,
          "internalType": "address",
          "name": "holder",
          "type": "address"
        }
      ],
      "name": "TicketRevoked",
      "type": "event"
    },
    {
      "anonymous": false,
      "inputs": [
        {
          "indexed": true,
          "internalType": "uint256",
          "name": "ticketId",
          "type": "uint256"
        },
        {
          "indexed": true,
          "internalType": "address",
          "name": "from",
          "type": "address"
        },
        {
          "indexed": true,
          "internalType": "address",
          "name": "to",
          "type": "address"
        },
        {
          "indexed": false,
          "internalType": "bytes32",
          "name": "newCredentialHash",
          "type": "bytes32"
        }
      ],
      "name": "TicketTransferred",
      "type": "event"
    },
    {
      "inputs": [],
      "name": "credentialRegistry",
      "outputs": [
        {
          "internalType": "contract CredentialRegistry",
          "name": "",
          "type": "address"
        }
      ],
      "stateMutability": "view",
      "type": "function"
    },
    {
      "inputs": [
        {
          "internalType": "uint256",
          "name": "",
          "type": "uint256"
        }
      ],
      "name": "credentials",
      "outputs": [
        {
          "internalType": "uint256",
          "name": "ticketId",
          "type": "uint256"
        },
        {
          "internalType": "uint256",
          "name": "eventId",
          "type": "uint256"
        },
        {
          "internalType": "address",
          "name": "holder",
          "type": "address"
        },
        {
          "internalType": "bytes32",
          "name": "credentialHash",
          "type": "bytes32"
        },
        {
          "internalType": "enum TicketCredential.TicketStatus",
          "name": "status",
          "type": "uint8"
        },
        {
          "internalType": "uint256",
          "name": "issuedAt",
          "type": "uint256"
        },
        {
          "internalType": "bool",
          "name": "exists",
          "type": "bool"
        }
      ],
      "stateMutability": "view",
      "type": "function"
    },
    {
      "inputs": [],
      "name": "eventRegistry",
      "outputs": [
        {
          "internalType": "contract EventRegistry",
          "name": "",
          "type": "address"
        }
      ],
      "stateMutability": "view",
      "type": "function"
    },
    {
      "inputs": [
        {
          "internalType": "uint256",
          "name": "ticketId",
          "type": "uint256"
        }
      ],
      "name": "getCredential",
      "outputs": [
        {
          "components": [
            {
              "internalType": "uint256",
              "name": "ticketId",
              "type": "uint256"
            },
            {
              "internalType": "uint256",
              "name": "eventId",
              "type": "uint256"
            },
            {
              "internalType": "address",
              "name": "holder",
              "type": "address"
            },
            {
              "internalType": "bytes32",
              "name": "credentialHash",
              "type": "bytes32"
            },
            {
              "internalType": "enum TicketCredential.TicketStatus",
              "name": "status",
              "type": "uint8"
            },
            {
              "internalType": "uint256",
              "name": "issuedAt",
              "type": "uint256"
            },
            {
              "internalType": "bool",
              "name": "exists",
              "type": "bool"
            }
          ],
          "internalType": "struct TicketCredential.Credential",
          "name": "",
          "type": "tuple"
        }
      ],
      "stateMutability": "view",
      "type": "function"
    },
    {
      "inputs": [
        {
          "internalType": "address",
          "name": "holder",
          "type": "address"
        }
      ],
      "name": "getHolderTickets",
      "outputs": [
        {
          "internalType": "uint256[]",
          "name": "",
          "type": "uint256[]"
        }
      ],
      "stateMutability": "view",
      "type": "function"
    },
    {
      "inputs": [
        {
          "internalType": "address",
          "name": "",
          "type": "address"
        },
        {
          "internalType": "uint256",
          "name": "",
          "type": "uint256"
        }
      ],
      "name": "holderTickets",
      "outputs": [
        {
          "internalType": "uint256",
          "name": "",
          "type": "uint256"
        }
      ],
      "stateMutability": "view",
      "type": "function"
    },
    {
      "inputs": [
        {
          "internalType": "uint256",
          "name": "eventId",
          "type": "uint256"
        },
        {
          "internalType": "address",
          "name": "buyer",
          "type": "address"
        },
        {
          "internalType": "bytes32",
          "name": "credentialHash",
          "type": "bytes32"
        }
      ],
      "name": "issueTicket",
      "outputs": [
        {
          "internalType": "uint256",
          "name": "",
          "type": "uint256"
        }
      ],
      "stateMutability": "nonpayable",
      "type": "function"
    },
    {
      "inputs": [
        {
          "internalType": "uint256",
          "name": "ticketId",
          "type": "uint256"
        },
        {
          "internalType": "uint256",
          "name": "eventId",
          "type": "uint256"
        }
      ],
      "name": "revokeTicket",
      "outputs": [],
      "stateMutability": "nonpayable",
      "type": "function"
    },
    {
      "inputs": [],
      "name": "ticketCount",
      "outputs": [
        {
          "internalType": "uint256",
          "name": "",
          "type": "uint256"
        }
      ],
      "stateMutability": "view",
      "type": "function"
    },
    {
      "inputs": [
        {
          "internalType": "uint256",
          "name": "ticketId",
          "type": "uint256"
        },
        {
          "internalType": "address",
          "name": "newHolder",
          "type": "address"
        },
        {
          "internalType": "bytes32",
          "name": "newCredentialHash",
          "type": "bytes32"
        }
      ],
      "name": "transferTicket",
      "outputs": [],
      "stateMutability": "nonpayable",
      "type": "function"
    }
  ],
  "bytecode": "0x608060405234801561000f575f5ffd5b50604051611fb1380380611fb183398181016040528101906100319190610115565b8160045f6101000a81548173ffffffffffffffffffffffffffffffffffffffff021916908373ffffffffffffffffffffffffffffffffffffffff160217905550805f5f6101000a81548173ffffffffffffffffffffffffffffffffffffffff021916908373ffffffffffffffffffffffffffffffffffffffff1602179055505050610153565b5f5ffd5b5f73ffffffffffffffffffffffffffffffffffffffff82169050919050565b5f6100e4826100bb565b9050919050565b6100f4816100da565b81146100fe575f5ffd5b50565b5f8151905061010f816100eb565b92915050565b5f5f6040838503121561012b5761012a6100b7565b5b5f61013885828601610101565b925050602061014985828601610101565b9150509250929050565b611e51806101605f395ff3fe608060405234801561000f575f5ffd5b506004361061009c575f3560e01c8063cfbd900f11610064578063cfbd900f14610144578063da70eddf14610162578063e0574e3f14610192578063f1f2c319146101c8578063f8cdd464146101f85761009c565b80630f6fa0ba146100a05780638dd18d2d146100bc578063acaacad5146100ec578063b948c3d41461010a578063ce5cca8b14610128575b5f5ffd5b6100ba60048036038101906100b59190611257565b610228565b005b6100d660048036038101906100d191906112a7565b61070f565b6040516100e39190611418565b60405180910390f35b6100f461086a565b604051610101919061148c565b60405180910390f35b61011261088f565b60405161011f91906114c5565b60405180910390f35b610142600480360381019061013d91906114de565b6108b3565b005b61014c610b6f565b604051610159919061152b565b60405180910390f35b61017c60048036038101906101779190611257565b610b75565b604051610189919061152b565b60405180910390f35b6101ac60048036038101906101a791906112a7565b610ff3565b6040516101bf9796959493929190611580565b60405180910390f35b6101e260048036038101906101dd91906115ed565b611068565b6040516101ef919061152b565b60405180910390f35b610212600480360381019061020d919061162b565b611093565b60405161021f91906116fe565b60405180910390f35b8260015f8281526020019081526020015f206006015f9054906101000a900460ff16610289576040517f08c379a000000000000000000000000000000000000000000000000000000000815260040161028090611778565b60405180910390fd5b3373ffffffffffffffffffffffffffffffffffffffff1660015f8381526020019081526020015f206002015f9054906101000a900473ffffffffffffffffffffffffffffffffffffffff1673ffffffffffffffffffffffffffffffffffffffff161461032a576040517f08c379a0000000000000000000000000000000000000000000000000000000008152600401610321906117e0565b60405180910390fd5b835f600381111561033e5761033d6112ff565b5b60015f8381526020019081526020015f206004015f9054906101000a900460ff166003811115610371576103706112ff565b5b146103b1576040517f08c379a00000000000000000000000000000000000000000000000000000000081526004016103a890611848565b60405180910390fd5b5f73ffffffffffffffffffffffffffffffffffffffff168473ffffffffffffffffffffffffffffffffffffffff160361041f576040517f08c379a0000000000000000000000000000000000000000000000000000000008152600401610416906118b0565b60405180910390fd5b3373ffffffffffffffffffffffffffffffffffffffff168473ffffffffffffffffffffffffffffffffffffffff160361048d576040517f08c379a000000000000000000000000000000000000000000000000000000000815260040161048490611918565b60405180910390fd5b5f60015f8781526020019081526020015f206002015f9054906101000a900473ffffffffffffffffffffffffffffffffffffffff1690505f5f9054906101000a900473ffffffffffffffffffffffffffffffffffffffff1673ffffffffffffffffffffffffffffffffffffffff1663ca6eec7860015f8981526020019081526020015f20600301546040518263ffffffff1660e01b81526004016105319190611936565b5f604051808303815f87803b158015610548575f5ffd5b505af115801561055a573d5f5f3e3d5ffd5b505050508460015f8881526020019081526020015f206002015f6101000a81548173ffffffffffffffffffffffffffffffffffffffff021916908373ffffffffffffffffffffffffffffffffffffffff1602179055508360015f8881526020019081526020015f2060030181905550600360015f8881526020019081526020015f206004015f6101000a81548160ff02191690836003811115610600576105ff6112ff565b5b021790555060025f8673ffffffffffffffffffffffffffffffffffffffff1673ffffffffffffffffffffffffffffffffffffffff1681526020019081526020015f2086908060018154018082558091505060019003905f5260205f20015f90919091909150558473ffffffffffffffffffffffffffffffffffffffff168173ffffffffffffffffffffffffffffffffffffffff16877f3bb8d74b4ef959fac1eaf251f3c755584311775c9feed50086b6d97ca1a7876b876040516106c49190611936565b60405180910390a45f60015f8881526020019081526020015f206004015f6101000a81548160ff02191690836003811115610702576107016112ff565b5b0217905550505050505050565b610717611126565b60015f8381526020019081526020015f206006015f9054906101000a900460ff16610777576040517f08c379a000000000000000000000000000000000000000000000000000000000815260040161076e90611778565b60405180910390fd5b60015f8381526020019081526020015f206040518060e00160405290815f820154815260200160018201548152602001600282015f9054906101000a900473ffffffffffffffffffffffffffffffffffffffff1673ffffffffffffffffffffffffffffffffffffffff1673ffffffffffffffffffffffffffffffffffffffff16815260200160038201548152602001600482015f9054906101000a900460ff166003811115610829576108286112ff565b5b600381111561083b5761083a6112ff565b5b815260200160058201548152602001600682015f9054906101000a900460ff1615151515815250509050919050565b60045f9054906101000a900473ffffffffffffffffffffffffffffffffffffffff1681565b5f5f9054906101000a900473ffffffffffffffffffffffffffffffffffffffff1681565b60015f8381526020019081526020015f206006015f9054906101000a900460ff16610913576040517f08c379a000000000000000000000000000000000000000000000000000000000815260040161090a90611778565b60405180910390fd5b5f60045f9054906101000a900473ffffffffffffffffffffffffffffffffffffffff1673ffffffffffffffffffffffffffffffffffffffff16636d1884e0836040518263ffffffff1660e01b815260040161096e919061152b565b5f60405180830381865afa158015610988573d5f5f3e3d5ffd5b505050506040513d5f823e3d601f19601f820116820180604052508101906109b09190611be4565b90503373ffffffffffffffffffffffffffffffffffffffff168160c0015173ffffffffffffffffffffffffffffffffffffffff1614610a24576040517f08c379a0000000000000000000000000000000000000000000000000000000008152600401610a1b90611c75565b60405180910390fd5b5f5f9054906101000a900473ffffffffffffffffffffffffffffffffffffffff1673ffffffffffffffffffffffffffffffffffffffff1663ca6eec7860015f8681526020019081526020015f20600301546040518263ffffffff1660e01b8152600401610a919190611936565b5f604051808303815f87803b158015610aa8575f5ffd5b505af1158015610aba573d5f5f3e3d5ffd5b505050505f60015f8581526020019081526020015f206002015f9054906101000a900473ffffffffffffffffffffffffffffffffffffffff169050600260015f8681526020019081526020015f206004015f6101000a81548160ff02191690836003811115610b2c57610b2b6112ff565b5b0217905550837f37bd1230fe8e8fc9af8451f78551e98dec16db81a9d5c49b5611f1efd3f3bbd182604051610b619190611c93565b60405180910390a250505050565b60035481565b5f5f60045f9054906101000a900473ffffffffffffffffffffffffffffffffffffffff1673ffffffffffffffffffffffffffffffffffffffff16636d1884e0866040518263ffffffff1660e01b8152600401610bd1919061152b565b5f60405180830381865afa158015610beb573d5f5f3e3d5ffd5b505050506040513d5f823e3d601f19601f82011682018060405250810190610c139190611be4565b90503373ffffffffffffffffffffffffffffffffffffffff168160c0015173ffffffffffffffffffffffffffffffffffffffff1614610c87576040517f08c379a0000000000000000000000000000000000000000000000000000000008152600401610c7e90611cf6565b60405180910390fd5b5f60045f9054906101000a900473ffffffffffffffffffffffffffffffffffffffff1673ffffffffffffffffffffffffffffffffffffffff1663ba8562a7876040518263ffffffff1660e01b8152600401610ce2919061152b565b602060405180830381865afa158015610cfd573d5f5f3e3d5ffd5b505050506040513d601f19601f82011682018060405250810190610d219190611d14565b90505f8111610d65576040517f08c379a0000000000000000000000000000000000000000000000000000000008152600401610d5c90611d89565b60405180910390fd5b5f600354905060035f815480929190610d7d90611dd4565b91905055506040518060e001604052808281526020018881526020018773ffffffffffffffffffffffffffffffffffffffff1681526020018681526020015f6003811115610dce57610dcd6112ff565b5b81526020014281526020016001151581525060015f8381526020019081526020015f205f820151815f0155602082015181600101556040820151816002015f6101000a81548173ffffffffffffffffffffffffffffffffffffffff021916908373ffffffffffffffffffffffffffffffffffffffff160217905550606082015181600301556080820151816004015f6101000a81548160ff02191690836003811115610e7d57610e7c6112ff565b5b021790555060a0820151816005015560c0820151816006015f6101000a81548160ff02191690831515021790555090505060025f8773ffffffffffffffffffffffffffffffffffffffff1673ffffffffffffffffffffffffffffffffffffffff1681526020019081526020015f2081908060018154018082558091505060019003905f5260205f20015f909190919091505560045f9054906101000a900473ffffffffffffffffffffffffffffffffffffffff1673ffffffffffffffffffffffffffffffffffffffff16634327c1a0886040518263ffffffff1660e01b8152600401610f69919061152b565b5f604051808303815f87803b158015610f80575f5ffd5b505af1158015610f92573d5f5f3e3d5ffd5b505050508573ffffffffffffffffffffffffffffffffffffffff1687827f6cda9fe7429d381e6d48619d323d790108a913a91c229c8e1a16d3695865cd9588604051610fde9190611936565b60405180910390a48093505050509392505050565b6001602052805f5260405f205f91509050805f015490806001015490806002015f9054906101000a900473ffffffffffffffffffffffffffffffffffffffff1690806003015490806004015f9054906101000a900460ff1690806005015490806006015f9054906101000a900460ff16905087565b6002602052815f5260405f208181548110611081575f80fd5b905f5260205f20015f91509150505481565b606060025f8373ffffffffffffffffffffffffffffffffffffffff1673ffffffffffffffffffffffffffffffffffffffff1681526020019081526020015f2080548060200260200160405190810160405280929190818152602001828054801561111a57602002820191905f5260205f20905b815481526020019060010190808311611106575b50505050509050919050565b6040518060e001604052805f81526020015f81526020015f73ffffffffffffffffffffffffffffffffffffffff1681526020015f81526020015f6003811115611172576111716112ff565b5b81526020015f81526020015f151581525090565b5f604051905090565b5f5ffd5b5f5ffd5b5f819050919050565b6111a981611197565b81146111b3575f5ffd5b50565b5f813590506111c4816111a0565b92915050565b5f73ffffffffffffffffffffffffffffffffffffffff82169050919050565b5f6111f3826111ca565b9050919050565b611203816111e9565b811461120d575f5ffd5b50565b5f8135905061121e816111fa565b92915050565b5f819050919050565b61123681611224565b8114611240575f5ffd5b50565b5f813590506112518161122d565b92915050565b5f5f5f6060848603121561126e5761126d61118f565b5b5f61127b868287016111b6565b935050602061128c86828701611210565b925050604061129d86828701611243565b9150509250925092565b5f602082840312156112bc576112bb61118f565b5b5f6112c9848285016111b6565b91505092915050565b6112db81611197565b82525050565b6112ea816111e9565b82525050565b6112f981611224565b82525050565b7f4e487b71000000000000000000000000000000000000000000000000000000005f52602160045260245ffd5b6004811061133d5761133c6112ff565b5b50565b5f81905061134d8261132c565b919050565b5f61135c82611340565b9050919050565b61136c81611352565b82525050565b5f8115159050919050565b61138681611372565b82525050565b60e082015f8201516113a05f8501826112d2565b5060208201516113b360208501826112d2565b5060408201516113c660408501826112e1565b5060608201516113d960608501826112f0565b5060808201516113ec6080850182611363565b5060a08201516113ff60a08501826112d2565b5060c082015161141260c085018261137d565b50505050565b5f60e08201905061142b5f83018461138c565b92915050565b5f819050919050565b5f61145461144f61144a846111ca565b611431565b6111ca565b9050919050565b5f6114658261143a565b9050919050565b5f6114768261145b565b9050919050565b6114868161146c565b82525050565b5f60208201905061149f5f83018461147d565b92915050565b5f6114af8261145b565b9050919050565b6114bf816114a5565b82525050565b5f6020820190506114d85f8301846114b6565b92915050565b5f5f604083850312156114f4576114f361118f565b5b5f611501858286016111b6565b9250506020611512858286016111b6565b9150509250929050565b61152581611197565b82525050565b5f60208201905061153e5f83018461151c565b92915050565b61154d816111e9565b82525050565b61155c81611224565b82525050565b61156b81611352565b82525050565b61157a81611372565b82525050565b5f60e0820190506115935f83018a61151c565b6115a0602083018961151c565b6115ad6040830188611544565b6115ba6060830187611553565b6115c76080830186611562565b6115d460a083018561151c565b6115e160c0830184611571565b98975050505050505050565b5f5f604083850312156116035761160261118f565b5b5f61161085828601611210565b9250506020611621858286016111b6565b9150509250929050565b5f602082840312156116405761163f61118f565b5b5f61164d84828501611210565b91505092915050565b5f81519050919050565b5f82825260208201905092915050565b5f819050602082019050919050565b5f61168a83836112d2565b60208301905092915050565b5f602082019050919050565b5f6116ac82611656565b6116b68185611660565b93506116c183611670565b805f5b838110156116f15781516116d8888261167f565b97506116e383611696565b9250506001810190506116c4565b5085935050505092915050565b5f6020820190508181035f83015261171681846116a2565b905092915050565b5f82825260208201905092915050565b7f5469636b657420646f6573206e6f7420657869737400000000000000000000005f82015250565b5f61176260158361171e565b915061176d8261172e565b602082019050919050565b5f6020820190508181035f83015261178f81611756565b9050919050565b7f4e6f7420746865207469636b657420686f6c64657200000000000000000000005f82015250565b5f6117ca60158361171e565b91506117d582611796565b602082019050919050565b5f6020820190508181035f8301526117f7816117be565b9050919050565b7f5469636b6574206973206e6f742076616c6964000000000000000000000000005f82015250565b5f61183260138361171e565b915061183d826117fe565b602082019050919050565b5f6020820190508181035f83015261185f81611826565b9050919050565b7f496e76616c6964206164647265737300000000000000000000000000000000005f82015250565b5f61189a600f8361171e565b91506118a582611866565b602082019050919050565b5f6020820190508181035f8301526118c78161188e565b9050919050565b7f43616e6e6f74207472616e7366657220746f20796f757273656c6600000000005f82015250565b5f611902601b8361171e565b915061190d826118ce565b602082019050919050565b5f6020820190508181035f83015261192f816118f6565b9050919050565b5f6020820190506119495f830184611553565b92915050565b5f5ffd5b5f601f19601f8301169050919050565b7f4e487b71000000000000000000000000000000000000000000000000000000005f52604160045260245ffd5b61199982611953565b810181811067ffffffffffffffff821117156119b8576119b7611963565b5b80604052505050565b5f6119ca611186565b90506119d68282611990565b919050565b5f5ffd5b5f815190506119ed816111a0565b92915050565b5f5ffd5b5f5ffd5b5f67ffffffffffffffff821115611a1557611a14611963565b5b611a1e82611953565b9050602081019050919050565b8281835e5f83830152505050565b5f611a4b611a46846119fb565b6119c1565b905082815260208101848484011115611a6757611a666119f7565b5b611a72848285611a2b565b509392505050565b5f82601f830112611a8e57611a8d6119f3565b5b8151611a9e848260208601611a39565b91505092915050565b5f81519050611ab5816111fa565b92915050565b611ac481611372565b8114611ace575f5ffd5b50565b5f81519050611adf81611abb565b92915050565b5f6101008284031215611afb57611afa61194f565b5b611b066101006119c1565b90505f611b15848285016119df565b5f83015250602082015167ffffffffffffffff811115611b3857611b376119db565b5b611b4484828501611a7a565b602083015250604082015167ffffffffffffffff811115611b6857611b676119db565b5b611b7484828501611a7a565b6040830152506060611b88848285016119df565b6060830152506080611b9c848285016119df565b60808301525060a0611bb0848285016119df565b60a08301525060c0611bc484828501611aa7565b60c08301525060e0611bd884828501611ad1565b60e08301525092915050565b5f60208284031215611bf957611bf861118f565b5b5f82015167ffffffffffffffff811115611c1657611c15611193565b5b611c2284828501611ae5565b91505092915050565b7f4f6e6c79206f7267616e697a65722063616e207265766f6b65000000000000005f82015250565b5f611c5f60198361171e565b9150611c6a82611c2b565b602082019050919050565b5f6020820190508181035f830152611c8c81611c53565b9050919050565b5f602082019050611ca65f830184611544565b92915050565b7f4f6e6c79206f7267616e697a65722063616e206973737565207469636b6574735f82015250565b5f611ce060208361171e565b9150611ceb82611cac565b602082019050919050565b5f6020820190508181035f830152611d0d81611cd4565b9050919050565b5f60208284031215611d2957611d2861118f565b5b5f611d36848285016119df565b91505092915050565b7f4576656e7420697320736f6c64206f75740000000000000000000000000000005f82015250565b5f611d7360118361171e565b9150611d7e82611d3f565b602082019050919050565b5f6020820190508181035f830152611da081611d67565b9050919050565b7f4e487b71000000000000000000000000000000000000000000000000000000005f52601160045260245ffd5b5f611dde82611197565b91507fffffffffffffffffffffffffffffffffffffffffffffffffffffffffffffffff8203611e1057611e0f611da7565b5b60018201905091905056fea2646970667358221220cfef17db3bddeea3e8b7ec3f7ff3e4b3a1b435573d03f57b823832615ae5ce4164736f6c634300081c0033",
  "linkReferences": {},
  "deployedLinkReferences": {},
  "immutableReferences": {},
  "inputSourceName": "project/contracts/TicketCredential.sol",
  "buildInfoId": "solc-0_8_28-7c8d556864da2f8cae75477bd13254f4e03420c8"
}