{"project/contracts/CredentialRegistry.sol":{"CredentialRegistry":{"abi":[{"anonymous":false,"inputs":[{"indexed":true,"internalType":"bytes32","name":"credentialHash","type":"bytes32"}],"name":"CredentialRevoked","type":"event"},{"inputs":[{"internalType":"bytes32","name":"credentialHash","type":"bytes32"}],"name":"isRevoked","outputs":[{"internalType":"bool","name":"","type":"bool"}],"stateMutability":"view","type":"function"},{"inputs":[{"internalType":"bytes32","name":"credentialHash","type":"bytes32"}],"name":"revokeCredential","outputs":[],"stateMutability":"nonpayable","type":"function"},{"inputs":[{"internalType":"bytes32","name":"","type":"bytes32"}],"name":"revokedCredentials","outputs":[{"internalType":"bool","name":"","type":"bool"}],"stateMutability":"view","type":"function"}],"evm":{"bytecode":{"linkReferences":{},"object":"6080604052348015600e575f5ffd5b506102238061001c5f395ff3fe608060405234801561000f575f5ffd5b506004361061003f575f3560e01c8063249b92a0146100435780634294857f14610073578063ca6eec78146100a3575b5f5ffd5b61005d6004803603810190610058919061018f565b6100bf565b60405161006a91906101d4565b60405180910390f35b61008d6004803603810190610088919061018f565b6100db565b60405161009a91906101d4565b60405180910390f35b6100bd60048036038101906100b8919061018f565b610100565b005b5f602052805f5260405f205f915054906101000a900460ff1681565b5f5f5f8381526020019081526020015f205f9054906101000a900460ff169050919050565b60015f5f8381526020019081526020015f205f6101000a81548160ff021916908315150217905550807f3cc2375f3fc7711ba27361cde93880f578742f9f050acee766bed662d117ba7260405160405180910390a250565b5f5ffd5b5f819050919050565b61016e8161015c565b8114610178575f5ffd5b50565b5f8135905061018981610165565b92915050565b5f602082840312156101a4576101a3610158565b5b5f6101b18482850161017b565b91505092915050565b5f8115159050919050565b6101ce816101ba565b82525050565b5f6020820190506101e75f8301846101c5565b9291505056fea2646970667358221220b603f0d8cc4e069839101a4f4b404612bda3b12ce2fa5937d0f2e3a7244ef0fd64736f6c634300081c0033","opcodes":"PUSH1 0x80 PUSH1 0x40 MSTORE CALLVALUE DUP1 ISZERO PUSH1 0xE JUMPI PUSH0 PUSH0 REVERT JUMPDEST POP PUSH2 0x223 DUP1 PUSH2 0x1C PUSH0 CODECOPY PUSH0 RETURN INVALID PUSH1 0x80 PUSH1 0x40 MSTORE CALLVALUE DUP1 ISZERO PUSH2 0xF JUMPI PUSH0 PUSH0 REVERT JUMPDEST POP PUSH1 0x4 CALLDATASIZE LT PUSH2 0x3F JUMPI PUSH0 CALLDATALOAD PUSH1 0xE0 SHR DUP1 PUSH4 0x249B92A0 EQ PUSH2 0x43 JUMPI DUP1 PUSH4 0x4294857F EQ PUSH2 0x73 JUMPI DUP1 PUSH4 0xCA6EEC78 EQ PUSH2 0xA3 JUMPI JUMPDEST PUSH0 PUSH0 REVERT JUMPDEST PUSH2 0x5D PUSH1 0x4 DUP1 CALLDATASIZE SUB DUP2 ADD SWAP1 PUSH2 0x58 SWAP2 SWAP1 PUSH2 0x18F JUMP JUMPDEST PUSH2 0xBF JUMP JUMPDEST PUSH1 0x40 MLOAD PUSH2 0x6A SWAP2 SWAP1 PUSH2 0x1D4 JUMP JUMPDEST PUSH1 0x40 MLOAD DUP1 SWAP2 SUB SWAP1 RETURN JUMPDEST PUSH2 0x8D PUSH1 0x4 DUP1 CALLDATASIZE SUB DUP2 ADD SWAP1 PUSH2 0x88 SWAP2 SWAP1 PUSH2 0x18F JUMP JUMPDEST PUSH2 0xDB JUMP JUMPDEST PUSH1 0x40 MLOAD PUSH2 0x9A SWAP2 SWAP1 PUSH2 0x1D4 JUMP JUMPDEST PUSH1 0x40 MLOAD DUP1 SWAP2 SUB SWAP1 RETURN JUMPDEST PUSH2 0xBD PUSH1 0x4 DUP1 CALLDATASIZE SUB DUP2 ADD SWAP1 PUSH2 0xB8 SWAP2 SWAP1 PUSH2 0x18F JUMP JUMPDEST PUSH2 0x100 JUMP JUMPDEST STOP JUMPDEST PUSH0 PUSH1 0x20 MSTORE DUP1 PUSH0 MSTORE PUSH1 0x40 PUSH0 KECCAK256 PUSH0 SWAP2 POP SLOAD SWAP1 PUSH2 0x100 EXP SWAP1 DIV PUSH1 0xFF AND DUP2 JUMP JUMPDEST PUSH0 PUSH0 PUSH0 DUP4 DUP2 MSTORE PUSH1 0x20 ADD SWAP1 DUP2 MSTORE PUSH1 0x20 ADD PUSH0 KECCAK256 PUSH0 SWAP1 SLOAD SWAP1 PUSH2 0x100 EXP SWAP1 DIV PUSH1 0xFF AND SWAP1 POP SWAP2 SWAP1 POP JUMP JUMPDEST PUSH1 0x1 PUSH0 PUSH0 DUP4 DUP2 MSTORE PUSH1 0x20 ADD SWAP1 DUP2 MSTORE PUSH1 0x20 ADD PUSH0 KECCAK256 PUSH0 PUSH2 0x100 EXP DUP2 SLOAD DUP2 PUSH1 0xFF MUL NOT AND SWAP1 DUP4 ISZERO ISZERO MUL OR SWAP1 SSTORE POP DUP1 PUSH32 0x3CC2375F3FC7711BA27361CDE93880F578742F9F050ACEE766BED662D117BA72 PUSH1 0x40 MLOAD PUSH1 0x40 MLOAD DUP1 SWAP2 SUB SWAP1 LOG2 POP JUMP JUMPDEST PUSH0 PUSH0 REVERT JUMPDEST PUSH0 DUP2 SWAP1 POP SWAP2 SWAP1 POP JUMP JUMPDEST PUSH2 0x16E DUP2 PUSH2 0x15C JUMP JUMPDEST DUP2 EQ PUSH2 0x178 JUMPI PUSH0 PUSH0 REVERT JUMPDEST POP JUMP JUMPDEST PUSH0 DUP2 CALLDATALOAD SWAP1 POP PUSH2 0x189 DUP2 PUSH2 0x165 JUMP JUMPDEST SWAP3 SWAP2 POP POP JUMP JUMPDEST PUSH0 PUSH1 0x20 DUP3 DUP5 SUB SLT ISZERO PUSH2 0x1A4 JUMPI PUSH2 0x1A3 PUSH2 0x158 JUMP JUMPDEST JUMPDEST PUSH0 PUSH2 0x1B1 DUP5 DUP3 DUP6 ADD PUSH2 0x17B JUMP JUMPDEST SWAP2 POP POP SWAP3 SWAP2 POP POP JUMP JUMPDEST PUSH0 DUP2 ISZERO ISZERO SWAP1 POP SWAP2 SWAP1 POP JUMP JUMPDEST PUSH2 0x1CE DUP2 PUSH2 0x1BA JUMP JUMPDEST DUP3 MSTORE POP POP JUMP JUMPDEST PUSH0 PUSH1 0x20 DUP3 ADD SWAP1 POP PUSH2 0x1E7 PUSH0 DUP4 ADD DUP5 PUSH2 0x1C5 JUMP JUMPDEST SWAP3 SWAP2 POP POP JUMP INVALID LOG2 PUSH5 0x6970667358 0x22 SLT KECCAK256 0xB6 SUB CREATE 0xD8 0xCC 0x4E MOD SWAP9 CODECOPY LT BYTE 0x4F 0x4B BLOCKHASH CHAINID SLT 0xBD LOG3 0xB1 0x2C 0xE2 STATICCALL MSIZE CALLDATACOPY 0xD0 CALLCODE 0xE3 0xA7 0x24 0x4E CREATE REVERT PUSH5 0x736F6C6343 STOP ADDMOD SHR STOP CALLER "},"methodIdentifiers":{"isRevoked(bytes32)":"4294857f","revokeCredential(bytes32)":"ca6eec78","revokedCredentials(bytes32)":"249b92a0"}}}}}